:020000040800F2
:1000000040080020A5010008951D0008111A0008ED
:10001000911D00080F0300084D2600080000000095
:100020000000000000000000000000007120000837
:100030001303000800000000991D00087520000847
:10004000BF010008BF010008BF010008BF01000890
:10005000BF010008511F0008BF010008BF010008D0
:10006000BF010008BF010008BF010008BF01000870
:10007000BF010008BF010008BF010008BF01000860
:10008000BF010008BF010008BF010008BF01000850
:10009000BF010008BF010008BF010008BF01000840
:1000A000BF010008BF010008BF010008BF01000830
:1000B000BF0100080000000000000000151A000841
:1000C000BF0100080000000000000000BF010008A0
:1000D00000000000FD250008BF010008000000002E
:1000E000BF010008BF010008000000000000000080
:1000F0000000000000000000000000000000000000
:10010000000000000000000000000000BF01000827
:100110000000000000000000BF010008BF0100084F
:10012000BF010008BF010008BF010008BF010008AF
:10013000BF010008000000000000000000000000F7
:10014000BF010008BF010008BF010008BF0100088F
:10015000BF010008BF010008BF010008BF0100087F
:10016000BF010008BF010008BF0100080000000037
:10017000BF010008BF0100080000000000000000EF
:10018000BF010008BF010008BF010008DFF810D060
:1001900000F080F8004800470D270008AFF300800A
:1001A000400800200648804706480047FEE7FEE773
:1001B000FEE7FEE7FEE7FEE7FEE7FEE7FEE7FEE717
:1001C000DD2100088D0100082DE9F05F05460020C3
:1001D00092469B4688460646814640241BE02846B8
:1001E00041464746224600F044F853465A46C01A54
:1001F000914110D311461846224600F02BF82D1AD3
:1002000067EB01084F4622460120002100F022F84A
:1002100017EB00094E41201EA4F10104DFDC484623
:1002200031462A46434600F000B830BCBDE8C09FC6
:10023000D2B201E000F8012B491EFBD27047002228
:10024000F6E710B513460A4604461946FFF7F0FFD5
:10025000204610BD202A04DB203A00FA02F10020DB
:1002600070479140C2F1200320FA03F319439040F4
:100270007047202A04DB203A21FA02F0002170475F
:1002800021FA02F3D040C2F12002914008431946FE
:1002900070470000064C074D06E0E06840F001039F
:1002A00094E8070098471034AC42F6D3FFF772FF8A
:1002B000182A0008382A000870B58C1810F8015B5D
:1002C00015F0070301D110F8013B2A1106D110F8EF
:1002D000012B03E010F8016B01F8016B5B1EF9D1F3
:1002E0002B0705D40023521E0DD401F8013BFAE779
:1002F00010F8013BCB1A921C03E013F8015B01F8E4
:10030000015B521EF9D5A142D8D3002070BD00BFB9
:10031000FEE7704710B515480068006800B910BDC9
:100320001248006800681249086008460068806842
:10033000104908600E480068C0680F4908600C4802
:10034000006800680D490860084800680068406857
:100350000649096808600649096808688047044832
:10036000006802F095F900BFD9E7000044010020C1
:100370004C010020500100205401002058010020B1
:1003800072B600BFFEE710B590F8251000240229D0
:1003900003D00421C16301241AE001680A6822F035
:1003A0000E020A6001680A6822F001020A6090F8F1
:1003B0004410036C01F01C02012101FA02F25A60A0
:1003C00080F82510002180F82410816B01B1884746
:1003D000204610BD2DE9FC4FDFF880A10023012548
:1003E0000AF1040B03244FF00F0C0BF1040EAEE0E6
:1003F00005FA03F632406FD04F68012F05D0022F67
:1004000003D0112F01D0122F17D1D0F808905F0020
:1004100004FA07F829EA08090097D1F80C8008FACD
:1004200007F848EA0908C0F808804768B7430E791A
:10043000C6F300169E403E434660C6684FEA430836
:1004400004FA08F7BE4301978F6807FA08F73743A5
:10045000C7604E68022E01D0122E13D1DE0800EBC9
:1004600086060096366A5F07FF0E0CFA07F926EA41
:100470000906D1F8109009FA07F949EA0609009E21
:10048000C6F820900768019EB7430E7906F0030670
:1004900006FA08F63E4306604E68F60056D5304E22
:1004A000376E47F001073766366E23F0030706F014
:1004B000010600962B4E3E44B146B6689F074FEAB0
:1004C00017780CFA08F7BE43B0F1904F05D0264FCD
:1004D000B84204D1012708E038E0002705E0234FA7
:1004E000B84201D1022700E0072707FA08F737438F
:1004F000C9F80870DAF800605746D1F804809643CE
:100500005FEAC83800D516433E60DBF800605F46FE
:10051000D1F8048096435FEA883800D516433E60E0
:10052000DEF800607746D1F8048096435FEAC82879
:1005300000D516433E60094F0C373E68D1F8048061
:1005400096435FEA882800D516433E605B1C0A6824
:1005500032FA03F67FF44CAF00F00AB80004014011
:10056000001002400000014000040048000800485C
:100570001CBCBDE8E08F0AB18161704781627047A1
:1005800001488068704700005C01002090F841201D
:10059000202A24D190F84020012A20D0012280F87E
:1005A0004020242280F841200268136823F00103D0
:1005B00013600268136823F48053136002681368A1
:1005C0000B43136001680A6842F001020A602021AF
:1005D00080F84110002180F8401008467047022042
:1005E000704790F84120202A22D190F84020012A1B
:1005F0001ED0012280F84020242280F84120026889
:10060000136823F0010313600268136823F4706316
:1006100043EA0121116001680A6842F001020A60A0
:10062000202180F84110002180F8401008467047D2
:1006300002207047026891691268436B002B00D05A
:100640001847704770B5040004D094F841000025A5
:1006500010B106E0012070BD84F84050204600F043
:1006600079F9242084F841002068016821F0010113
:1006700001606068216820F070600861206881680E
:1006800021F400418160E0680128A06807D040F4AF
:10069000044021688860E068022803D006E040F446
:1006A0000040F6E721684FF4006048602068416828
:1006B000114A114341602068C16821F40041C160C2
:1006C000D4E904010843A16940EA01202168C86017
:1006D000D4E907010843216808602068016841F0F7
:1006E000010101606564202084F84100256384F8DD
:1006F0004250002070BD0000008000022DE9F84F3C
:10070000044690F84100DDF828A01F4690468B462D
:1007100020287ED194F8400001287AD0012084F866
:100720004000FFF72DFF0646012200901923D10358
:10073000204601F0E1F9E0BB222084F841001020BE
:1007400084F8420000256564C4F8248067856563E9
:10075000618D3148FF274FF080784FF00079FF29F5
:1007600003D927853A46009039E0618D21850090B4
:100770003AE05946204601F0A9F913E001F0E8F902
:10078000B8B92068406A616A0870606A401C60629B
:10079000208D401E80B22085618D491E6185618D4E
:1007A00001B168B1608D3246002851462046E5D13E
:1007B00000E002E001F00EFAD0B1012000F030B804
:1007C0005346002280212046009601F095F900282A
:1007D000F3D1608DFF2804D927853A46009543461A
:1007E000C7E7608D2085009594F828204B46C0E728
:1007F00021682020C86121684A68084B1A404A6075
:1008000084F8410084F8425084F840500020D5E735
:10081000FFE70220D2E700000024008000E800FE8D
:1008200018BCBDE8E08F00002DE9F84F044690F8B1
:100830004100DDF828A01F4690468B4620287ED137
:1008400094F8400001287AD0012084F84000FFF796
:1008500097FE0646012200901923D103204601F09D
:100860004BF9E0BB212084F84100102084F84200BD
:1008700000256564C4F8248067856563618D31480F
:10088000FF274FF080784FF00079FF2903D92785A3
:100890003A46009039E0618D218500903AE0594652
:1008A000204601F013F913E001F0BAF9B8B9606A13
:1008B000216800788862606A401C6062608D401E1A
:1008C0006085208D401E80B22085618D01B168B1A8
:1008D000608D3246002851462046E5D100E002E016
:1008E00001F078F9D0B1012000F030B85346002271
:1008F00080212046009601F0FFF80028F3D1608D9A
:10090000FF2804D927853A4600954346C7E7608DFE
:100910002085009594F828204B46C0E721682020C8
:10092000C86121684A68084B1A404A6084F841004F
:1009300084F8425084F840500020D5E7FFE70220B9
:10094000D2E700000020008000E800FE18BCBDE8EF
:10095000E08F000010B586B00446142101A8FFF70F
:100960006EFC1D492068884233D100BF1B48C06C13
:1009700040F001001949C8640846C06C00F001004D
:10098000009000BF00BF4FF4C060019012200290A1
:1009900001200390032004900420059001A94FF04A
:1009A0009040FFF717FD00BF0C48806D40F4001029
:1009B0000A4988650846806D00F40010009000BF69
:1009C00000BF002211461F2000F07AF81F2000F01F
:1009D00069F806B010BD000000540040001002404D
:1009E0000248816802781144816070475C010020F0
:1009F00010B50024032000F083F8002000F008F870
:100A000008B1012401E000F025F8204610BD0000E7
:100A100070B50E4E05460024307898B14FF47A71C7
:100A2000B1FBF0F00A490968B1FBF0F000F0DAFD23
:100A300040B9102D06D200222946501E00F040F881
:100A4000756000E00124204670BD00005C010020BC
:100A50006801002008B500BF1148006E40F0010099
:100A60000F4908660846006E00F00100009000BFC4
:100A700000BF00BF0846806D40F080508865084682
:100A8000806D00F08050009000BF00BF0022114632
:100A9000052000F015F8052000F004F808BD00005E
:100AA00000100240002809DB00F01F0201219140E4
:100AB0004009800000F1E020C0F8001170470000FC
:100AC000F0B40E4B1B680C46C3F30223C3F10705B9
:100AD000042D00D90425191D072901D2002300E0A7
:100AE000DB1E012606FA05F1491E214099409E4071
:100AF000761E16403143F0BC01F0AABD0CED00E0BB
:100B0000064900F0070208684FF6FF03184040EA64
:100B10000220034A10430860704700000CED00E01B
:100B20000000FA051649B0F5007F0868C0F34120BF
:100B300009D0022805D0086820F4C06040F4806025
:100B40000860002070470128FBD0086820F4C060CE
:100B500040F4007008600B483222006850430A4A93
:100B6000B0FBF2F0401C00E0401E4A69520501D57E
:100B70000028F9D148694005E3D5032070470000FB
:100B8000007000406801002040420F0002480068E9
:100B900000F4C06070470000007000400248016827
:100BA00041F48071016070470070004002480168A4
:100BB00041F0040101607047001002402DE9F84F38
:100BC0000446002700889C4D3E46000515D5E06B85
:100BD00060B1B0F5000F04D0B0F5400F2BD0012765
:100BE0000AE0E86840F48030E86024E00021201D3D
:100BF00001F018F907001ED03E462068800338D562
:100C0000A86D4FF00008C00009D4A86D40F08050D6
:100C1000A865A86D4FF0010800F080500090DFF843
:100C20001CA2DAF8001041F48071CAF80010FFF736
:100C3000A7FC814610E0D5F88800E16B20F4400065
:100C40000843C5F88800D8E7FFF79AFCA0EB090035
:100C5000022801D9032704E0DAF80000C005F3D523
:100C6000EFB33E46B8F1000F03D0A86D20F08050DE
:100C7000A8652078C00707D0D5F88800216A20F041
:100C800003000843C5F888002078800707D5D5F809
:100C90008800616A20F00C000843C5F888002078BD
:100CA000800607D5D5F88800A16A20F44060084383
:100CB000C5F888002088800507D5D5F88800616BC5
:100CC00020F440200843C5F888002088400509D555
:100CD000D5F88800A16B20F44010084300E02EE016
:100CE000C5F888002078400607D5D5F88800E16A65
:100CF00020F440500843C5F888002088C00507D577
:100D0000D5F88800216B20F440300843C5F88800EE
:100D100020884FF0006780044FF080684ED5D5F8EA
:100D20008800216C20F040600843C5F88800206CE2
:100D3000B8423BD1E86840F48010E8603EE0D5F866
:100D4000900010F4407014D0216D814211D0D5F87C
:100D50009000D5F8901020F4407041F48031C5F82F
:100D60009010D5F8901021F48031C5F89010C5F896
:100D70009000C00711D0FFF703FC074641F2883905
:100D800007E000BFFFF7FCFBC11B494501D9032663
:100D900068E7D5F890008007F4D5D5F89000216D6C
:100DA00020F440700843C5F890005BE7404505D14A
:100DB0000121201D01F036F800B1064620684003ED
:100DC00017D5D5F88800616C20F040600843C5F85D
:100DD0008800606CB84204D1E86840F48010E86094
:100DE00007E0404505D10121201D01F01BF800B1AD
:100DF00006462088400411D5D5F88800A16C20F063
:100E000040500843C5F88800A06CB0F1805F05D160
:100E10000221201D01F006F800B1064620880004DA
:100E200006D555F8880FE16C20F080400843286013
:100E3000304600F005B8000000100240007000408D
:100E400018BCBDE8E08F00002DE9F0470F46050013
:100E500058D0404E306800F00700B84209D23068E0
:100E600020F0070038433060306800F00700B842D7
:100E700048D12878384CC0072CD06868032811D096
:100E8000022812D0216898B1490500293ADAA168F0
:100E900021F003010143A160FFF772FB804641F29C
:100EA000883910E021688901EFE721688903ECE7C0
:100EB0008907EAE7FFF764FBA0EB0801494502D97F
:100EC0000320BDE8F087A068696800F00C00B0EB73
:100ED000810FEFD12878800705D5A068A96820F098
:100EE000F0000843A060306800F00700B8420BD95A
:100EF000306820F0070038433060306800F00700A9
:100F0000B84201D00120DCE72878400705D5A06869
:100F1000E96820F4E0600843A0602878000706D55F
:100F2000A068296920F4605040EAC100A06000F088
:100F300045F8A168094AC1F30311515C01F01F0192
:100F4000C8400749086007480068BDE8F047FFF758
:100F50005FBD00000020024000100240D0290008C0
:100F6000680100206001002001480068704700000F
:100F7000680100200548064900688968054AC1F3F0
:100F80000221515C01F01F01C84070476801002038
:100F900000100240102A00080548064900688968C8
:100FA000054AC1F3C221515C01F01F01C8407047DE
:100FB0006801002000100240102A000870B5254981
:100FC000002318468A68CC6812F00C0204F003066D
:100FD000214C4FEA640509D00C2A05D0042A32D0EE
:100FE000082A00D1284670BD012E10D10B681B07BE
:100FF00004D4D1F89430C3F3032302E00B68C3F3A5
:101000000313164E56F82330DAB10C2AEBD1C86818
:1010100000F00300022818D0032818D01846CA6828
:10102000CB68C2F30212C3F306234343521CB3FB43
:10103000F2F2C868C0F34160401C4000B2FBF0F01F
:1010400070BD184670BD204670BD2046E7E72846B3
:10105000E5E70000001002400024F400E029000849
:101060002DE9F84304006FD0FE4DA86800F00C068F
:10107000E86800F003072078C00664D576B10C2E2E
:1010800001D1012F0AD0A069002828687AD040F049
:1010900001002860FFF774FA80465DE02868800749
:1010A00002D5A0690028DED0216A2868000703D590
:1010B000286800F0F00004E0D5F89400F02202EA7D
:1010C0001010814216D9084600F044FF00283BD199
:1010D000286840F0080028602868216A20F0F000A5
:1010E000084328606868E16920F47F4040EA0120F5
:1010F000686016E0286840F0080028602868216AC7
:1011000020F0F000084328606868E16920F47F401F
:1011100040EA0120686026B9206A00F01BFF002821
:10112000D5D1FFF74BFFA968CF4AC1F30311515C3A
:1011300001F01F01C840CD490860CD480068FFF7A5
:1011400067FC00287ED12EE0CAE000BFFFF718FA46
:10115000A0EB0800022876D828688007F6D5286812
:1011600040F0080028602868216A20F0F000084359
:1011700028606868E16920F47F4040EA01206860E7
:1011800011E0FFE720F001002860FFF7F9F9804641
:1011900006E000BFFFF7F4F9A0EB08000228DAD858
:1011A00028688007F6D42078C00740D0082E18D0D1
:1011B0000C2E01D1032F14D06068B0F5803F17D0FA
:1011C000B0F5A02F286817D020F480302860286858
:1011D00020F4802028606068E0B1FFF7D1F98046F4
:1011E00014E02868800322D56068002878D01EE0CB
:1011F000286840F48030EDE740F480202860F7E76D
:10120000FFF7BEF9A0EB08006428A4D82868800383
:10121000F6D50CE0FFF7B4F9804605E0FFF7B0F92A
:10122000A0EB0800642896D828688003F6D42078BC
:1012300080073BD5042E11D00C2E01D1022F0DD0EA
:10124000E06801E0B6E1FFE0002828681ED040F425
:1012500080702860FFF794F907460CE02868400585
:101260000CD5E0680028C1D008E000BFFFF788F97E
:10127000C01B022893D828684005F7D56868217CF0
:1012800020F0FE4040EA016068600FE020F48070CA
:101290002860FFF775F9074605E000BFFFF770F912
:1012A000C01B0228B1D828684005F7D42078000771
:1012B00029D560690028D5F8940012D040F00100CB
:1012C000C5F89400FFF75CF9074604E0FFF758F90A
:1012D000C01B022899D8D5F894008007F6D512E0F3
:1012E0002BE120F00100C5F89400FFF749F907460B
:1012F00005E000BFFFF744F9C01B022885D8D5F8E8
:1013000094008007F6D42078400766D5A86D0027A2
:10131000C00008D4A86D40F08050A865A86D0127D2
:1013200000F08050009053480168C90512D401684C
:10133000814641F480710160FFF722F9804605E0A3
:10134000FFF71EF9A0EB080002287DD8D9F80000AD
:10135000C005F5D5A068012816D00528D5F890005D
:1013600017D020F00100C5F89000D5F8900020F0CB
:10137000040000BFC5F89000A06841F28839C0B1F0
:10138000FFF7FEF880460FE0D5F8900040F001002E
:10139000F0E740F00400C5F89000F5E7FFF7F0F83B
:1013A000A0EB080149454FD8D5F890008007F5D546
:1013B0000EE0FFF7E5F8804606E000BFFFF7E0F833
:1013C000A0EB080149453FD8D5F890008007F5D437
:1013D0001FB1A86D20F08050A8652078800628D520
:1013E000606A0028D5F8980012D040F00100C5F8D6
:1013F0009800FFF7C5F8074605E000BFFFF7C0F803
:10140000C01B022820D8D5F898008007F6D510E038
:1014100020F00100C5F89800FFF7B2F8074604E095
:10142000FFF7AEF8C01B02280ED8D5F89800800749
:10143000F6D4A06AA8B1022824D00C2E7DD028684A
:1014400020F08070286000E0B3E02868000103D439
:10145000E86820F00300E860E86807490840E860B1
:101460000CE09FE000100240D02900086801002035
:101470006001002000700040FFFFEEFEFFF780F8E3
:10148000044699E0E868E26A00F00301914226D13F
:10149000216B00F070020901103991421FD1626B7B
:1014A00000F4FE41B1EB022F19D194F8382000F07E
:1014B0007841B1EBC26F12D1A18F00F4C00249088C
:1014C0004905A1F50011914209D194F8401000F0AE
:1014D000C06049084906A1F1007181424BD00C2E31
:1014E0006FD0286840016CD4286820F08070286094
:1014F000FFF746F8064604E0FFF742F8801B022893
:1015000057D828688001F7D4F4E90B016FF00F0277
:1015100002EB01110843218A5204490802EB4151B0
:10152000A26841EA02210843217D4FF07E4249082A
:1015300002EB41610843217B00E042E040EAC160E8
:10154000E968214A11400843E860286840F080704B
:101550002860E86840F08070E860FFF711F8044602
:1015600005E000BFFFF70CF8001B022821D828680F
:101570008001F7D523E02868800120D4286840F056
:1015800080702860E86840F08070E860FEF7F8FF3F
:10159000044604E0FEF7F4FF001B022809D828687F
:1015A0008001F7D50BE000BFFEF7EAFF001B022821
:1015B00002D90320BDE8F88328688001F4D4002014
:1015C000F8E70120F6E700008C809D014FF0E02154
:1015D0000428086903D020F004000861704740F037
:1015E0000400FAE710B5401EB0F1807F01D301205E
:1015F00010BD4FF0E02460610F21601701F028F862
:101600000020A06107202061002010BD70477047B6
:101610002DE9F04102680446D0691168936840F6EC
:101620000F0528424FF0000505D186067BD58E06B2
:1016300079D5216E88E04D4F03F001060F40374306
:1016400071D0C70707D0CF0505D501271762E26F14
:1016500042F00102E267820708D5DA0706D0276860
:1016600002223A62E26F42F00402E267420708D5C2
:10167000DA0706D0236804221A62E26F42F00202FF
:10168000E26702070AD501F02002324306D0236840
:1016900008221A62E26F42F00802E267020509D5E9
:1016A0004A0107D523684FF400621A62E26F42F0E4
:1016B0002002E267E26F002A2ED0800605D5880658
:1016C00003D5216E09B120468847E06F21688968FB
:1016D000490602D410F0280F20D0204600F03AFE30
:1016E00020688168490614D5816821F04001816035
:1016F000E06E70B11E498163E06EFEF744FE002883
:101700000AD0E06E816B00E02046BDE8F04108475A
:1017100009E02046FFF77BFFBDE8F0812046FFF798
:1017200076FFE567F8E7C60209D55B0207D54FF4F7
:10173000801010622046BDE8F041FFF767BF030646
:1017400005D50B0603D5616E0029DDD1E4E740061F
:10175000E2D54806E0D51168204621F0400111602D
:1017600020216167656600F052F9D5E72001000489
:101770004123000810B5040002D0606F10B107E0EB
:10178000012010BD002084F87000204600F026F8EB
:10179000242060672068016821F001010160204673
:1017A00000F0E8FD0128ECD0606A10B1204600F09E
:1017B00037FD2068416821F49041416020688168CC
:1017C00021F02A0181602068016841F00101016077
:1017D0002046BDE8104000F087BD000010B586B07F
:1017E0000446142101A8FEF72AFD1B4920688842FF
:1017F00030D100BF1948006E40F480401749086698
:101800000846006E00F48040009000BF00BF00BF9B
:101810000846C06C40F00200C8640846C06C00F086
:101820000200009000BF00BFC02001900220029083
:1018300000200390032004900720059001A9084888
:10184000FEF7C8FD002211462520FFF739F92520B3
:10185000FFF728F906B010BD003801400010024023
:10186000000400482DE9F84F0446806F9A4616465A
:101870000D4620286BD1EDB1E6B194F87000012837
:1018800065D0012084F870004FF00008C4F87C8017
:101890002220A067FEF774FEA4F858608146A4F8E1
:1018A0005A60A0684FF48053FF21984208D1226902
:1018B0001AB11CE0012000F04CB840F2FF1116E014
:1018C0007F2290B1B0F1805F14D0A4F85C8000BF9B
:1018D000B4F85C70984201D1206990B12E46002581
:1018E00084F8708007F0FF0825E0266936B9A4F86F
:1018F0005C10EDE7216909B13F21F8E7A4F85C200D
:10190000E6E70026ECE74B46002220212046CDF8F2
:1019100000A000F021FE08B10320CCE72068808CF5
:101920008EB100EA080006F8010B00BFB4F85A00B7
:10193000401EA4F85A00B4F85A000028E3D1202031
:10194000A0670020B7E7384025F8020BEEE7022039
:10195000B1E718BCBDE8E08F2DE9F8430446406FBD
:101960001F4616460D4620284FD1CDB1C6B194F87A
:101970007000012849D0012084F870004FF0000861
:10198000C4F87C8021206067FEF7FAFDA4F850605F
:101990008146A4F85260A068B0F5805F03D004E0EF
:1019A0000120BDE8F883206928B12E465FF00005CC
:1019B00084F8708010E00026FAE78021204600F0CD
:1019C000CBFDB8B9C6B116F8010B21680885B4F88B
:1019D0005200401EA4F85200B4F852004B464FF09B
:1019E000000200970028E8D14FF04001204600F0A7
:1019F000B3FD30B10320D4E735F8020BC0F3080083
:101A0000E3E7202060670020CBE70220C9E77047AA
:101A100000BFFEE710B50248FEF70CFE10BD000047
:101A20007401002001688A69D243920701D4002220
:101A30008A6200688169C943C90703D0816941F09E
:101A400001018161704700002DE9F0410446006802
:101A500090460E468069C043C00633D40025202737
:101A600020688069C043800615D5701CF8D0FEF749
:101A700087FDA0EB0800B04201D8002EF0D154F849
:101A8000440F40F0200044F804096770A5702570E9
:101A90000120BDE8F08121681020C8612068C7617D
:101AA0002046FFF7BFFF54F8440B4168064A114037
:101AB0004160206840F0040044F820096777A5776A
:101AC0002577E5E70020E4E700E800FEF0B50568CB
:101AD000059C68684FF48066064FC1F3090106EA69
:101AE000545641EA02413E431943B043214308435F
:101AF0006860F0BDFF63FF032DE9F0411D46174606
:101B00000E460446DDF8188008E0681C06D0FEF793
:101B100037FDA0EB0800A8420BD855B120688069BA
:101B200036EA000012D00020B842EED00020BDE816
:101B3000F08154F8440F40F0200044F804092020BC
:101B400060700020A07020700120F0E70120EBE71A
:101B50002DE9F041002690460F460446202525E059
:101B6000424639462046FFF76FFF78BB2068806900
:101B7000C043800613D420688169C943490701D452
:101B8000218DC1B9C56154F8440B4168104A114018
:101B9000416044F820696577A677267716E0FEF75E
:101BA000EFFCA0EB0800B84208D83FB1206880697C
:101BB000C0434007D4D40020BDE8F08154F8440F5E
:101BC00040F0200044F80409657026700120F3E716
:101BD00000E800FE70B516460D4604460DE032469C
:101BE00029462046FFF730FF08B1012070BDFEF7FF
:101BF000C7FC801BA84207D835B120688069C04364
:101C00008006ECD4002070BD54F8440F40F0200052
:101C100044F80409202060700020A0702070E4E7E0
:101C200070B516460D4604460FE03246294620465A
:101C3000FFF70AFF08B1012070BD681C05D0FEF750
:101C40009FFC801BA84207D835B120688069C0433B
:101C50008007EAD4002070BD54F8440F40F0200003
:101C600044F80409202060700020A0702070E2E792
:101C700000B587B0142102A8FEF7E1FA00BF1C48A6
:101C8000C06C40F004001A49C8640846C06C00F0FB
:101C90000400019000BF00BF00BF0846C06C40F0C8
:101CA0000100C8640846C06C00F00100019000BF4C
:101CB00000BF00BF0846C06C40F00200C864084680
:101CC000C06C00F00200019000BF00BF002208219C
:101CD0000848FEF750FC08200290012003900020E5
:101CE0000490059002A90348FEF774FB07B000BDFD
:101CF000001002400004004810B512481249086064
:101D0000124848600021104881600121C160002113
:101D1000016141618161C1610162FEF793FC08B11B
:101D2000FEF72EFB00210848FEF730FC08B1FEF755
:101D300027FB00210448FEF754FC08B1FEF720FB06
:101D400010BD00000054004074010020BB7C7000F6
:101D500010B50D480D4908604FF4E130486000218E
:101D60000A488160C16001610C21416100218161EB
:101D7000C16101620020054948620846FFF7FAFC8C
:101D800008B1FEF7FDFA10BD00380140C001002087
:101D900000BFFEE700BFFEE7704700002DE9F843F3
:101DA00080460E4600200090102000F0DFFC044624
:101DB000C4F800804FF0FF30E060A660184800686B
:101DC000006828B91648006804600020606024E0BC
:101DD0001348006800688068B04207DD104800685A
:101DE000006860600E480068046016E00C480068F7
:101DF000056809E0A868B04204DD01200090656034
:101E00007C6001E02F466D689DF8000008B9002D48
:101E1000F0D19DF8000000B97C60BDE8F8830000B7
:101E2000440100202DE9F041444C05468846E06815
:101E30000026810728680DD0E16801F00301814286
:101E400016D1A8B1E0686968C0F30210401C88424E
:101E50000ED120E0012804D0022805D0032807D1A4
:101E600008E02168890701E021684905002907DBAE
:101E700001265FE02168890302D421684903F5E760
:101E8000E1686A686FF00F0321F0730103EB02123F
:101E900011430143E160206820F080602060FEF77C
:101EA0006FFB074605E000BFFEF76AFBC01B022878
:101EB00037D820680001F7D4B8F1000F18D0B8F176
:101EC000010F1DD0287D4FF07E41400801EB40609E
:101ED000A96840EA01202169194A1140084320619C
:101EE000206840F080602060FEF74AFB07461AE059
:101EF000A868297B000240EAC1602169114AECE729
:101F0000288A1149400801EB4050A96840EA0120A5
:101F100021690E4AE1E700BFFEF732FBC01B022831
:101F200001D9032606E020680001F5D52069A969DA
:101F3000084320613046BDE8F081000000100240F7
:101F4000FF80FFF9FF80FF070000E0FFFF809FFF99
:101F500070470000F8B51C4D06460024A86DC0006F
:101F600002D5FEF713FE0DE0A86D40F08050A86585
:101F7000A86D00F080500090FEF708FEA96D21F0DA
:101F80008051A965B0F5007F04D0802E07D94FF0AD
:101F900003040AE0802E08D9A02E01D804E001D164
:101FA000022402E0702E00D101240848016821F0CB
:101FB000070121430160006800F00700A04201D042
:101FC0000120F8BD0020F8BD0010024000200240B2
:101FD000F8B5064600200090102000F0C7FB04462C
:101FE00020480068206020480068A060E66000206B
:101FF000606036B91C4801681A480068FFF7CEFED9
:10200000F8BD1A480068006828B9184800680460DC
:102010000020606024E0154800680068C068B04295
:1020200007DD1248006800686060104800680460BE
:1020300016E00E480068056809E0E868B04204DD73
:102040000120009065607C6001E02F466D689DF87E
:10205000000008B9002DF0D19DF8000000B97C60A7
:1020600000BFCDE7580100205001002048010020AA
:102070007047000070B51D4800681D490968884216
:102080000BDC1A4800681A490968884209D11948C6
:10209000006819490968884203DD01201749086072
:1020A00002E000201549086015480068046816E041
:1020B000E068401EE060E06800280FDCA16820684E
:1020C000FFF76CFE0E4960680968086025460C48F9
:1020D00000680468284600F0DBFA02E06468002C1F
:1020E000E6D100BFFEF77CFC70BD0000F4000020CC
:1020F000EC000020F8000020F0000020FC00002090
:102100004801002010B5ACB044211BA8FEF797F899
:10211000142116A8FEF793F8542101A8FEF78FF8B2
:10212000FEF73CFD2C48006820F018002A49903941
:10213000C1F8900014201B9001201D9021900020D8
:102140002290602023900220259001211BA8C162CB
:10215000016310214163072181630221C16301648E
:10216000FEF77EFF08B1FEF70BF90F201690032053
:1021700017900020189019901A90012116A8FEF7C8
:1021800063FE08B1FEF7FCF84120019000200990A1
:102190000C9001A8FEF712FD08B1FEF7F1F84FF41C
:1021A0000070FEF7BFFC08B1FEF7EAF8FEF7FEFC90
:1021B000FEF7DAFE00EB800084002046FFF712FAFB
:1021C0000420FFF703FA00221146501EFEF778FCA8
:1021D000FEF7ECFC2CB010BD901002400D480168D9
:1021E00041F4700101600C48016841F00101016097
:1021F000002181600268094B1A4002608214C260AB
:10220000026822F48022026081610249C0038039A1
:102210000860704788ED00E000100240FFFFF6EA1A
:1022200090F82410C90706D001684A68836A22F42E
:1022300000321A434A6090F82410890706D50168D5
:102240004A68C36A22F480321A434A6090F8241024
:10225000490706D501684A68036B22F480221A43B5
:102260004A6090F82410090706D501684A68436B54
:1022700022F400421A434A6090F82410C90606D599
:1022800001688A68836B22F480521A438A6090F84E
:102290002410890606D501688A68C36B22F40052AF
:1022A0001A438A6090F82410490611D501684A68DB
:1022B000036C22F480121A434A60016CB1F5801F4E
:1022C00006D101684A68436C22F4C0021A434A608E
:1022D00090F82410090606D501684A68806C22F43B
:1022E000002202434A607047F8B500260446C667DC
:1022F000FEF746F90546206800686FF07E47000744
:1023000008D52B4600224FF400112046009700F01C
:1023100023F960B92068006840070AD52B460022DF
:102320004FF480012046009700F016F908B1032011
:10233000F8BD20206067A06784F870600020F8BDB9
:1023400010B5806A0021A0F85A10A0F85210FFF7CB
:102350005EF910BD01680A6822F490720A60016893
:102360008A6822F001028A602021816700210166CB
:10237000704700002DE9F041044601688068226939
:10238000E3691043626900251A4310436B4F0A68E2
:102390006B4B1A4002430A6020684168E26821F4EE
:1023A0004051114341602168A069B94201D0226ABD
:1023B00010438A6822F4306202438A6061492368CC
:1023C00061488B420DD1D0F8880010F0030006D090
:1023D000012838D0022834D0032821D135E001214A
:1023E0001FE05A498B420BD1D0F8880010F00C0046
:1023F00025D0042827D0082823D00C2810D124E089
:10240000BB420DD1D0F8880010F4406017D0B0F571
:10241000806F18D0B0F5006F13D0B0F5406F14D0B6
:1024200010214B4800264FF40042BB422FD171B11E
:10243000022912D004290DD0082973D125E00021EA
:10244000EFE70221EDE70421EBE70821E9E7FEF7DA
:1024500091FD01E0FEF7B2FDF0B3626802EB4201CC
:1024600081425FD8B0EB023F5CD8010E00027308D6
:102470004FEA3207C01959410023FDF7A5FE354A3E
:10248000A0F54071914251D94CE01046E5E7E3696F
:102490004FF6EF77934229D1092943D2DFE801F0C3
:1024A00005080E420B4242422400FEF763FD04E0A1
:1024B000FEF772FD01E0FEF781FD68B14100606842
:1024C00001EB5001B1FBF0F080B2A0F11001B94274
:1024D00028D84FF6F07100E02AE00140C0F3420036
:1024E00001432068C16023E01046E7E7092919D2BB
:1024F000DFE801F005080E180B1818181A00FEF78F
:1025000039FD04E0FEF748FD01E0FEF757FD78B124
:10251000616800EB5100B0FBF1F080B2A0F1100156
:10252000B94203D9012503E01046F1E72168C860EC
:10253000266628466666BDE8F081000000800040FF
:10254000F369FFEF003801400010024000440040F2
:102550000024F400FFFC0F002DE9F0479A461746CF
:102560000E4604464FF000094FF02008089D39E060
:10257000681C37D0FEF704F8A0EB0A00A84222D866
:102580000DB32068016849072CD5C069C043000518
:1025900028D421684FF4006008622068016821F4A3
:1025A000D07101602068816821F001018160C4F868
:1025B0007480C4F87880C4F87C8000BF84F8709080
:1025C0000320BDE8F0872068016821F4D071016024
:1025D0002068816821F001018160C4F87480C4F82A
:1025E0007880EBE72068C06936EA000004D000205C
:1025F000B842BDD00020E4E70120F9E708B54FF06C
:10260000FF33012269460D48FFF72CF99DF80000C1
:102610000B490C4A126888540A480068401C094952
:10262000086008460068052803D100210648FFF726
:10263000B5FB0248FEF7ECFF08BD0000C00100201A
:1026400000000020E80000200929000800BFFEE784
:102650000907090E002804DB00F1E02080F80014CF
:10266000704700F00F0000F1E02080F8141D704763
:1026700002E008C8121F08C1002AFAD1704770474B
:10268000002001E001C1121F002AFBD170470000A9
:1026900010B5002821D0114B0022001F196803E05B
:1026A000814203D80A4649680029F9D152B113681A
:1026B000841A9C4204D1006818441060104602E05D
:1026C000506000E0186039B102680B1A934203D1E0
:1026D0000B681A4402604968416010BD6C0100201B
:1026E00010B5042000F042F806490860002009688F
:1026F0000860042000F03AF80349086000200968E7
:10270000086010BD4401002048010020FEF770F968
:10271000FFF7F8FCFFF7ACFAFFF7EEFAFFF718FB4C
:102720000E480068006840F020000C490968086005
:10273000FFF7D6FF4FF0FF33C02209490748FFF7E4
:102740000BF902210748FFF729FB07210648FFF78D
:1027500025FB01E0FDF7DEFDFCE70000C0010020E5
:1027600005000020D9270008B1280008F0B50B307B
:10277000154D20F007010024144A0FE003688B4236
:102780000BD38B4205D95E1A43184768C3E900672B
:1027900000E04368136002C004E0021D10680028D6
:1027A000ECD12046002802D1286808B10020F0BDF5
:1027B000064A07481060074A121A22F00702C0E9C9
:1027C000002401202860D7E7700100206C01002060
:1027D000440200204004002000B587B02EA003C8AA
:1027E000CDE9010111208DF8140012208DF8180098
:1027F0002B480068006840F02000294909680860FB
:102800000E208DF810003C208DF811000A200223C4
:1028100004AAD02100902348FEF706F80E208DF878
:102820000C003C208DF80D000A20022303AAD021C1
:1028300000901C48FDF7F8FF0A20012305AAD021CB
:1028400000901848FDF7F0FF0A2001230DF1150252
:10285000D12100901348FDF751FF9DF81500124952
:1028600008600A20012306AAD02100900D48FDF738
:10287000DBFF0A2001230DF11902D1210090094844
:10288000FDF73CFF9DF819000849086041F270709F
:10289000FFF79EFB07B000BD00002E00000D0A00F0
:1028A000C001002074010020F4000020F800002086
:1028B00010B512480068012815D111480068012898
:1028C00008D100200E490860012208210D48FDF7BB
:1028D00052FE0DE001200A49086000220821094843
:1028E000FDF749FE04E0002208210648FDF743FEFB
:1028F0004FF4FB70FFF76CFB10BD0000FC000020E4
:10290000000100200004004810B529480078302854
:102910003DDB27480078392839DC254840783028C5
:1029200035DB23484078392831DC214880782E284F
:102930002DD11F48C078302829DB1D48C0783928A0
:1029400025DC1B480079302821DB1948007939281B
:102950001DDC4FF0FF33152216491748FEF7FCFF28
:10296000134841780078303800EB800001EB4000DC
:102970003038124908600E480179C078303800EBD1
:10298000800001EB400030380D49086006E04FF050
:10299000FF3322220B490848FEF7DEFF00200A49D8
:1029A0000860431E212209490348FEF7D5FF10BDE8
:1029B000000000200C010020C0010020EC000020DD
:1029C000F000002021010020E8000020C5000020C8
:1029D00000000000000000000102030406070809CF
:1029E000A0860100400D0300801A060000350C008F
:1029F00040420F0080841E0000093D0000127A0052
:102A00000024F40000366E010048E801006CDC028E
:102A10000000000001020304382A00080000002022
:102A200074010000B8020008002B000874010020A7
:102A3000CC0600008026000821222EFC0D0A2D0164
:102A400008151054656D6570657261747572652046
:102A50004D6F6E69746F722618080D0A596F7520D4
:102A600061231815616C6C6F77656420746F206545
:102A70006E7465722074686504480B726573686FC4
:102A80006C6420666F1269277E0D0A74656D603B69
:102A9000696E1D2B666F1E2C696E672FA8136D6102
:102AA000742078782E78780D0A506C656173652CE7
:102AB00059893D1B3A20C0091E2251021F1E1815BC
:102AC00020285448524553484F4C442055504441C7
:102AD000544544291500201A57524F4E4720464F5F
:102AE000524D41542C20504C45415345205452598D
:102AF00020414741494E293201821093093D00008F
:040000050800018D61
:00000001FF
