:020000040800F2
:1000000060050020A5010008E71C00086919000828
:10001000E51C0008B90200086D230008000000007C
:10002000000000000000000000000000951E000815
:10003000BB02000800000000E91C0008971E000831
:10004000BF010008BF010008BF010008BF01000890
:10005000BF010008BF010008BF010008BF01000880
:10006000BF010008BF010008BF010008BF01000870
:10007000BF010008BF010008BF010008BF01000860
:10008000BF010008BF010008BF010008BF01000850
:10009000BF010008BF010008BF010008BF01000840
:1000A000BF010008BF010008BF010008BF01000830
:1000B000BF0100080000000000000000BF010008B0
:1000C000BF0100080000000000000000BF010008A0
:1000D0000000000055230008612300080000000014
:1000E000BF010008BF010008000000000000000080
:1000F0000000000000000000000000000000000000
:10010000000000000000000000000000BF01000827
:100110000000000000000000BF010008BF0100084F
:10012000BF010008BF010008BF010008BF010008AF
:10013000BF010008000000000000000000000000F7
:10014000BF010008BF010008BF010008BF0100088F
:10015000BF010008BF010008BF010008BF0100087F
:10016000BF010008BF010008BF0100080000000037
:10017000BF010008BF0100080000000000000000EF
:10018000BF010008BF010008BF010008DFF810D060
:1001900000F080F800480047AD230008AFF300806E
:1001A000600500200648804706480047FEE7FEE756
:1001B000FEE7FEE7FEE7FEE7FEE7FEE7FEE7FEE717
:1001C000351F00088D0100082DE9F05F054600206D
:1001D00092469B4688460646814640241BE02846B8
:1001E00041464746224600F044F853465A46C01A54
:1001F000914110D311461846224600F02BF82D1AD3
:1002000067EB01084F4622460120002100F022F84A
:1002100017EB00094E41201EA4F10104DFDC484623
:1002200031462A46434600F000B830BCBDE8C09FC6
:10023000D2B201E000F8012B491EFBD27047002228
:10024000F6E710B513460A4604461946FFF7F0FFD5
:10025000204610BD202A04DB203A00FA02F10020DB
:1002600070479140C2F1200320FA03F319439040F4
:100270007047202A04DB203A21FA02F0002170475F
:1002800021FA02F3D040C2F12002914008431946FE
:1002900070470000064C074D06E0E06840F001039F
:1002A00094E8070098471034AC42F6D3FFF772FF8A
:1002B0008C250008AC250008FEE7704710B590F8C3
:1002C00025100024022903D00421C16301241AE06F
:1002D00001680A6822F00E020A6001680A6822F0CA
:1002E00001020A6090F84410036C01F01C02012125
:1002F00001FA02F25A6080F82510002180F82410DB
:10030000816B01B18847204610BD000070B50446DE
:1003100000F0ECF80546601C02D004480078044464
:1003200000F0E4F8401BA042FAD370BD00000020AA
:100330002DE9FC4FDFF880A1002301250AF1040B11
:1003400003244FF00F0C0BF1040EAEE005FA03F698
:1003500032406FD04F68012F05D0022F03D0112FEC
:1003600001D0122F17D1D0F808905F0004FA07F8D7
:1003700029EA08090097D1F80C8008FA07F848EA3A
:100380000908C0F808804768B7430E79C6F300161D
:100390009E403E434660C6684FEA430804FA08F7A9
:1003A000BE4301978F6807FA08F73743C7604E6866
:1003B000022E01D0122E13D1DE0800EB8606009625
:1003C000366A5F07FF0E0CFA07F926EA0906D1F82C
:1003D000109009FA07F949EA0609009EC6F820902C
:1003E0000768019EB7430E7906F0030606FA08F681
:1003F0003E4306604E68F60056D5304E376E47F0E5
:1004000001073766366E23F0030706F001060096F3
:100410002B4E3E44B146B6689F074FEA17780CFA58
:1004200008F7BE43B0F1904F05D0264FB84204D133
:10043000012708E038E0002705E0234FB84201D14A
:10044000022700E0072707FA08F73743C9F80870C2
:10045000DAF800605746D1F8048096435FEAC8385E
:1004600000D516433E60DBF800605F46D1F804809B
:1004700096435FEA883800D516433E60DEF8006098
:100480007746D1F8048096435FEAC82800D5164322
:100490003E60094F0C373E68D1F8048096435FEA0E
:1004A000882800D516433E605B1C0A6832FA03F6C2
:1004B0007FF44CAF00F00AB8000401400010024085
:1004C0000000014000040048000800481CBCBDE8D2
:1004D000E08F426921EA02030A4043EA0241816156
:1004E00070470AB181617047816270470148806836
:1004F000704700000000002090F84120202A24D1FD
:1005000090F84020012A20D0012280F840202422A7
:1005100080F841200268136823F001031360026829
:10052000136823F480531360026813680B4313604D
:1005300001680A6842F001020A60202180F8411037
:10054000002180F84010084670470220704790F85C
:100550004120202A22D190F84020012A1ED00122D9
:1005600080F84020242280F841200268136823F09C
:10057000010313600268136823F4706343EA0121E6
:10058000116001680A6842F001020A60202180F8C7
:100590004110002180F84010084670470220704743
:1005A00070B5040004D094F84100002510B106E0B5
:1005B000012070BD84F84050204600F00FFA24203E
:1005C00084F841002068016821F001010160606841
:1005D000216820F0706008612068816821F4004182
:1005E0008160E0680128A06807D040F404402168D9
:1005F0008860E068022803D006E040F40040F6E797
:1006000021684FF40060486020684168114A114336
:1006100041602068C16821F40041C160D4E904014F
:100620000843A16940EA01202168C860D4E90701B4
:100630000843216808602068016841F001010160F9
:100640006564202084F84100256384F8425000202E
:1006500070BD0000008000022DE9FC470026044622
:10066000019690F841001F469246894620287ED187
:1006700020688069C043000479D594F840000128BF
:1006800075D0012084F84000242084F8410066647D
:100690004FF02008E068012809D029F4544040F4C4
:1006A000205021684860FFF721FF05460DE03149E1
:1006B00049EA010030490840F3E7781C05D0FFF70C
:1006C00015FF401BB84219D8C7B1216888698969EC
:1006D000C0F34010C1F300110843EED020688069D8
:1006E0003B46C043C0064FF000024FF020012046B9
:1006F000009517D501F0A2F968BB09E084F84180A4
:1007000054F8440F40F0200044F80409267022E019
:100710002168C1F81C8084F8418084F84060002082
:1007200000F02CB801F08AF9A8B921681020C8613E
:100730002168C1F81C800198504512D12068416899
:1007400041F4804141603B46002220212046009533
:1007500001F074F910B10120E2E708E02168C1F866
:100760001C800198401C0190504593D3C6E702209D
:10077000D6E7000000200002FF2300020CBCBDE809
:10078000F08700002DE9F84F044690F84100DDF8AD
:1007900028A01F4690468B4620287ED194F8400022
:1007A00001287AD0012084F84000FFF79FFE06461A
:1007B000012200901923D103204601F03FF9E0BB4C
:1007C000222084F84100102084F84200002565644E
:1007D000C4F8248067856563618D3148FF274FF039
:1007E00080784FF00079FF2903D927853A46009099
:1007F00039E0618D218500903AE05946204601F0AC
:1008000007F913E001F046F9B8B92068406A616A57
:100810000870606A401C6062208D401E80B2208596
:10082000618D491E6185618D01B168B1608D32466F
:10083000002851462046E5D100E002E001F06CF9C5
:10084000D0B1012000F030B853460022802120466C
:10085000009601F0F3F80028F3D1608DFF2804D949
:1008600027853A4600954346C7E7608D2085009569
:1008700094F828204B46C0E721682020C8612168F1
:100880004A68084B1A404A6084F8410084F8425094
:1008900084F840500020D5E7FFE70220D2E70000AF
:1008A0000024008000E800FE18BCBDE8E08F0000D6
:1008B0002DE9F84F044690F84100DDF828A01F46C6
:1008C00090468B4620287ED194F8400001287AD0AB
:1008D000012084F84000FFF709FE0646012200903F
:1008E0001923D103204601F0A9F8E0BB212084F8A8
:1008F0004100102084F8420000256564C4F824807B
:1009000067856563618D3148FF274FF080784FF030
:100910000079FF2903D927853A46009039E0618D97
:10092000218500903AE05946204601F071F813E025
:1009300001F018F9B8B9606A216800788862606AC5
:10094000401C6062608D401E6085208D401E80B21C
:100950002085618D01B168B1608D32460028514615
:100960002046E5D100E002E001F0D6F8D0B1012048
:1009700000F030B85346002280212046009601F056
:100980005DF80028F3D1608DFF2804D927853A4609
:1009900000954346C7E7608D2085009594F8282090
:1009A0004B46C0E721682020C86121684A68084B8F
:1009B0001A404A6084F8410084F8425084F840505C
:1009C0000020D5E7FFE70220D2E7000000200080EA
:1009D00000E800FE18BCBDE8E08F000010B586B04E
:1009E000044614216846FFF72AFC12492068884211
:1009F0001ED1114CE06C40F00200E064E06C6946EE
:100A000000F002000590C02000901220019001200B
:100A1000029003200390042004900848FFF788FC0C
:100A2000A06D40F40010A065A06D00F400100590CA
:100A300006B010BD00540040001002400004004801
:100A400002488168027811448160704700000020EC
:100A500010B50024032000F071F8002000F008F821
:100A600008B1012401E000F025F8204610BD000087
:100A700070B50E4E05460024307898B14FF47A7167
:100A8000B1FBF0F00A490968B1FBF0F000F0B6FDE7
:100A900040B9102D06D200222946501E00F02EF833
:100AA000756000E00124204670BD000000000020B9
:100AB0000C000020094808B5016E41F001010166F3
:100AC000016E01F001010091816D41F0805181655D
:100AD000806D00F08050009008BD000000100240C2
:100AE000002809DB00F01F0201219140400980002D
:100AF00000F1E020C0F8001170470000F0B40E4B88
:100B00001B680C46C3F30223C3F10705042D00D96B
:100B10000425191D072901D2002300E0DB1E012650
:100B200006FA05F1491E214099409E40761E164066
:100B30003143F0BC01F01BBC0CED00E0064900F0B5
:100B4000070208684FF6FF03184040EA0220034AF4
:100B500010430860704700000CED00E00000FA054B
:100B60001649B0F5007F0868C0F3412009D002287B
:100B700005D0086820F4C06040F480600860002060
:100B800070470128FBD0086820F4C06040F4007072
:100B900008600B483222006850430A4AB0FBF2F06A
:100BA000401C00E0401E4A69520501D50028F9D1D9
:100BB00048694005E3D503207047000000700040FD
:100BC0000C00002040420F000248006800F4C060A2
:100BD00070470000007000400248016841F48071D5
:100BE00001607047007000400248016841F0040154
:100BF00001607047001002402DE9F84F04460027BD
:100C000000889C4D3E46000515D5E06B60B1B0F5FF
:100C1000000F04D0B0F5400F2BD001270AE0E868A0
:100C200040F48030E86024E00021201D01F05EF8EF
:100C300007001ED03E462068800338D5A86D4FF0CF
:100C40000008C00009D4A86D40F08050A865A86DC8
:100C50004FF0010800F080500090DFF81CA2DAF895
:100C6000001041F48071CAF80010FFF73FFC814684
:100C700010E0D5F88800E16B20F440000843C5F887
:100C80008800D8E7FFF732FCA0EB0900022801D961
:100C9000032704E0DAF80000C005F3D5EFB33E46C1
:100CA000B8F1000F03D0A86D20F08050A86520781F
:100CB000C00707D0D5F88800216A20F00300084358
:100CC000C5F888002078800707D5D5F88800616AC4
:100CD00020F00C000843C5F888002078800607D56E
:100CE000D5F88800A16A20F440600843C5F8880060
:100CF0002088800507D5D5F88800616B20F4402056
:100D00000843C5F888002088400509D5D5F8880033
:100D1000A16B20F44010084300E02EE0C5F88800E5
:100D20002078400607D5D5F88800E16A20F44050C5
:100D30000843C5F888002088C00507D5D5F8880085
:100D4000216B20F440300843C5F8880020884FF01C
:100D5000006780044FF080684ED5D5F88800216C7C
:100D600020F040600843C5F88800206CB8423BD1B1
:100D7000E86840F48010E8603EE0D5F8900010F498
:100D8000407014D0216D814211D0D5F89000D5F873
:100D9000901020F4407041F48031C5F89010D5F8DF
:100DA000901021F48031C5F89010C5F89000C0076C
:100DB00011D0FFF79BFB074641F2883907E000BFDF
:100DC000FFF794FBC11B494501D9032668E7D5F815
:100DD00090008007F4D5D5F89000216D20F4407084
:100DE0000843C5F890005BE7404505D10121201D6F
:100DF00000F07CFF00B106462068400317D5D5F807
:100E00008800616C20F040600843C5F88800606C81
:100E1000B84204D1E86840F48010E86007E040453B
:100E200005D10121201D00F061FF00B10646208898
:100E3000400411D5D5F88800A16C20F0405008433B
:100E4000C5F88800A06CB0F1805F05D10221201D9B
:100E500000F04CFF00B106462088000406D555F886
:100E6000880FE16C20F0804008432860304600F095
:100E700005B80000001002400070004018BCBDE83A
:100E8000E08F00002DE9F0470F46050058D0404E96
:100E9000306800F00700B84209D2306820F007003F
:100EA00038433060306800F00700B84248D12878F5
:100EB000384CC0072CD06868032811D0022812D003
:100EC000216898B1490500293ADAA16821F00301A7
:100ED0000143A160FFF70AFB804641F2883910E028
:100EE00021688901EFE721688903ECE78907EAE7D0
:100EF000FFF7FCFAA0EB0801494502D90320BDE841
:100F0000F087A068696800F00C00B0EB810FEFD1AA
:100F10002878800705D5A068A96820F0F00008436C
:100F2000A060306800F00700B8420BD9306820F0AC
:100F3000070038433060306800F00700B84201D045
:100F40000120DCE72878400705D5A068E96820F48F
:100F5000E0600843A0602878000706D5A0682969EA
:100F600020F4605040EAC100A06000F03FF8A168A2
:100F7000094AC1F30311515C01F01F01C840074940
:100F8000086007480068BDE8F047FFF771BD000042
:100F90000020024000100240442500080C00002000
:100FA000040000200548064900688968054AC1F325
:100FB0000221515C01F01F01C84070470C00002065
:100FC0000010024084250008054806490068896829
:100FD000054AC1F3C221515C01F01F01C8407047AE
:100FE0000C000020001002408425000870B525493F
:100FF000002318468A68CC6812F00C0204F003063D
:10100000214C4FEA640509D00C2A05D0042A32D0BD
:10101000082A00D1284670BD012E10D10B681B078D
:1010200004D4D1F89430C3F3032302E00B68C3F374
:101030000313164E56F82330DAB10C2AEBD1C868E8
:1010400000F00300022818D0032818D01846CA68F8
:10105000CB68C2F30212C3F306234343521CB3FB13
:10106000F2F2C868C0F34160401C4000B2FBF0F0EF
:1010700070BD184670BD204670BD2046E7E7284683
:10108000E5E70000001002400024F40054250008A9
:101090002DE9F84304006FD0FE4DA86800F00C065F
:1010A000E86800F003072078C00664D576B10C2EFE
:1010B00001D1012F0AD0A069002828687AD040F019
:1010C00001002860FFF712FA80465DE0286880077B
:1010D00002D5A0690028DED0216A2868000703D560
:1010E000286800F0F00004E0D5F89400F02202EA4D
:1010F0001010814216D9084600F08EFE00283BD120
:10110000286840F0080028602868216A20F0F00074
:10111000084328606868E16920F47F4040EA0120C4
:10112000686016E0286840F0080028602868216A96
:1011300020F0F000084328606868E16920F47F40EF
:1011400040EA0120686026B9206A00F065FE0028A8
:10115000D5D1FFF74BFFA968CF4AC1F30311515C0A
:1011600001F01F01C840CD490860CD480068FFF775
:101170007FFC00287ED12EE0CAE000BFFFF7B6F961
:10118000A0EB0800022876D828688007F6D52868E2
:1011900040F0080028602868216A20F0F000084329
:1011A00028606868E16920F47F4040EA01206860B7
:1011B00011E0FFE720F001002860FFF797F9804673
:1011C00006E000BFFFF792F9A0EB08000228DAD88A
:1011D00028688007F6D42078C00740D0082E18D0A1
:1011E0000C2E01D1032F14D06068B0F5803F17D0CA
:1011F000B0F5A02F286817D020F480302860286828
:1012000020F4802028606068E0B1FFF76FF9804625
:1012100014E02868800322D56068002878D01EE09A
:10122000286840F48030EDE740F480202860F7E73C
:10123000FFF75CF9A0EB08006428A4D828688003B5
:10124000F6D50CE0FFF752F9804605E0FFF74EF9BE
:10125000A0EB0800642896D828688003F6D420788C
:1012600080073BD5042E11D00C2E01D1022F0DD0BA
:10127000E06801E0B6E1FFE0002828681ED040F4F5
:1012800080702860FFF732F907460CE028684005B7
:101290000CD5E0680028C1D008E000BFFFF726F9B0
:1012A000C01B022893D828684005F7D56868217CC0
:1012B00020F0FE4040EA016068600FE020F480709A
:1012C0002860FFF713F9074605E000BFFFF70EF9A6
:1012D000C01B0228B1D828684005F7D42078000741
:1012E00029D560690028D5F8940012D040F001009B
:1012F000C5F89400FFF7FAF8074604E0FFF7F6F8A0
:10130000C01B022899D8D5F894008007F6D512E0C2
:101310002BE120F00100C5F89400FFF7E7F807463D
:1013200005E000BFFFF7E2F8C01B022885D8D5F81A
:1013300094008007F6D42078400766D5A86D002772
:10134000C00008D4A86D40F08050A865A86D0127A2
:1013500000F08050009053480168C90512D401681C
:10136000814641F480710160FFF7C0F8804605E0D6
:10137000FFF7BCF8A0EB080002287DD8D9F80000E0
:10138000C005F5D5A068012816D00528D5F890002D
:1013900017D020F00100C5F89000D5F8900020F09B
:1013A000040000BFC5F89000A06841F28839C0B1C0
:1013B000FFF79CF880460FE0D5F8900040F0010060
:1013C000F0E740F00400C5F89000F5E7FFF78EF86D
:1013D000A0EB080149454FD8D5F890008007F5D516
:1013E0000EE0FFF783F8804606E000BFFFF77EF8C7
:1013F000A0EB080149453FD8D5F890008007F5D407
:101400001FB1A86D20F08050A8652078800628D5EF
:10141000606A0028D5F8980012D040F00100C5F8A5
:101420009800FFF763F8074605E000BFFFF75EF896
:10143000C01B022820D8D5F898008007F6D510E008
:1014400020F00100C5F89800FFF750F8074604E0C7
:10145000FFF74CF8C01B02280ED8D5F8980080077B
:10146000F6D4A06AA8B1022824D00C2E7DD028681A
:1014700020F08070286000E0B3E02868000103D409
:10148000E86820F00300E860E86807490840E86081
:101490000CE09FE000100240442500080C000020F2
:1014A0000400002000700040FFFFEEFEFFF71EF872
:1014B000044699E0E868E26A00F00301914226D10F
:1014C000216B00F070020901103991421FD1626B4B
:1014D00000F4FE41B1EB022F19D194F8382000F04E
:1014E0007841B1EBC26F12D1A18F00F4C00249085C
:1014F0004905A1F50011914209D194F8401000F07E
:10150000C06049084906A1F1007181424BD00C2E00
:101510006FD0286840016CD4286820F08070286063
:10152000FEF7E4FF064604E0FEF7E0FF801B02281A
:1015300057D828688001F7D4F4E90B016FF00F0247
:1015400002EB01110843218A5204490802EB415180
:10155000A26841EA02210843217D4FF07E424908FA
:1015600002EB41610843217B00E042E040EAC160B8
:10157000E968214A11400843E860286840F080701B
:101580002860E86840F08070E860FEF7AFFF04462E
:1015900005E000BFFEF7AAFF001B022821D828683B
:1015A0008001F7D523E02868800120D4286840F026
:1015B00080702860E86840F08070E860FEF796FF71
:1015C000044604E0FEF792FF001B022809D82868B1
:1015D0008001F7D50BE000BFFEF788FF001B022853
:1015E00002D90320BDE8F88328688001F4D40020E4
:1015F000F8E70120F6E700008C809D0110B5401E41
:10160000B0F1807F01D3012010BD4FF0E024606174
:101610000F21601700F0ABFE0020A06107202061C1
:10162000002010BD704770472DE9F0410268044664
:10163000D0691168936840F60F0528424FF0000505
:1016400005D186067BD58E0679D5216E88E04D4F73
:1016500003F001060F40374371D0C70707D0CF050D
:1016600005D501271762E26F42F00102E2678207A7
:1016700008D5DA0706D0276802223A62E26F42F004
:101680000402E267420708D5DA0706D0236804227D
:101690001A62E26F42F00202E26702070AD501F025
:1016A0002002324306D0236808221A62E26F42F019
:1016B0000802E267020509D54A0107D523684FF4FD
:1016C00000621A62E26F42F02002E267E26F002AD3
:1016D0002ED0800605D5880603D5216E09B1204697
:1016E0008847E06F21688968490602D410F0280F06
:1016F00020D0204600F0DAFC20688168490614D525
:10170000816821F040018160E06E70B11E49816303
:10171000E06EFEF7D3FD00280AD0E06E816B00E09A
:101720002046BDE8F041084709E02046FFF77BFF6F
:10173000BDE8F0812046FFF776FFE567F8E7C602CF
:1017400009D55B0207D54FF4801010622046BDE832
:10175000F041FFF767BF030605D50B0603D5616EA1
:101760000029DDD1E4E74006E2D54806E0D511685E
:10177000204621F04001116020216167656600F07C
:10178000F2F8D5E7200100049920000810B5040004
:1017900002D0606F10B107E0012010BD002084F876
:1017A0007000204600F026F8242060672068016859
:1017B00021F001010160204600F088FC0128ECD0F6
:1017C000606A10B1204600F0D7FB2068416821F420
:1017D000904141602068816821F02A018160206881
:1017E000016841F0010101602046BDE8104000F0B1
:1017F00027BC0000F0B587B0044614216846FEF708
:101800001EFD284F266800222749022303240725AE
:101810004FF09040BE421FD10E6E46F480460E66D9
:101820000E6E06F480460596CE6C46F00106CE6438
:10183000C96C02AE01F0010105916102CDE900130E
:1018400086E834006946FEF773FD00221146252024
:10185000FFF754F9252021E0144FBE4220D18E6DB0
:1018600046F400368E658E6D06F400360596CE6C15
:1018700046F00106CE64C96C02AE01F0010105918B
:101880000C21CDE9001386E834006946FEF750FDCF
:10189000002211462620FFF731F92620FFF720F914
:1018A00007B0F0BD00380140001002400044004085
:1018B0002DE9F8430446406F1F4616460D46202882
:1018C0004FD1CDB1C6B194F87000012849D00120A4
:1018D00084F870004FF00008C4F87C802120606715
:1018E000FEF704FEA4F850608146A4F85260A06898
:1018F000B0F5805F03D004E00120BDE8F8832069E3
:1019000028B12E465FF0000584F8708010E00026B4
:10191000FAE78021204600F0CBFCB8B9C6B116F832
:10192000010B21680885B4F85200401EA4F852004B
:10193000B4F852004B464FF0000200970028E8D15F
:101940004FF04001204600F0B3FC30B10320D4E753
:1019500035F8020BC0F30800E3E7202060670020A1
:10196000CBE70220C9E77047FEE701688A69D243E6
:10197000920701D400228A6200688169C943C907BD
:1019800003D0816941F00101816170472DE9F04187
:101990000446006890460E468069C043C00633D4B2
:1019A0000025202720688069C043800615D5701C5B
:1019B000F8D0FEF79BFDA0EB0800B04201D8002E46
:1019C000F0D154F8440F40F0200044F80409677047
:1019D000A57025700120BDE8F08121681020C86144
:1019E0002068C7612046FFF7C0FF54F8440B4168E8
:1019F000064A11404160206840F0040044F8200984
:101A00006777A5772577E5E70020E4E700E800FEA3
:101A1000F0B50568059C68684FF48066064FC1F311
:101A2000090106EA545641EA02413E431943B043D4
:101A3000214308436860F0BDFF63FF032DE9F041D7
:101A40001D4617460E460446DDF8188008E0681C5F
:101A500006D0FEF74BFDA0EB0800A8420BD855B10D
:101A60002068806936EA000012D00020B842EED02B
:101A70000020BDE8F08154F8440F40F0200044F805
:101A80000409202060700020A07020700120F0E781
:101A90000120EBE72DE9F041002690460F46044671
:101AA000202525E0424639462046FFF76FFF78BBE8
:101AB00020688069C043800613D420688169C943C7
:101AC000490701D4218DC1B9C56154F8440B41685F
:101AD000104A1140416044F820696577A67726775F
:101AE00016E0FEF703FDA0EB0800B84208D83FB1AE
:101AF00020688069C0434007D4D40020BDE8F0814D
:101B000054F8440F40F0200044F804096570267032
:101B10000120F3E700E800FE70B516460D460446C6
:101B20000DE0324629462046FFF730FF08B101207C
:101B300070BDFEF7DBFC801BA84207D835B12068DA
:101B40008069C0438006ECD4002070BD54F8440F77
:101B500040F0200044F80409202060700020A070AC
:101B60002070E4E770B516460D4604460FE0324695
:101B700029462046FFF70AFF08B1012070BD681C06
:101B800005D0FEF7B3FC801BA84207D835B120680A
:101B90008069C0438007EAD4002070BD54F8440F28
:101BA00040F0200044F80409202060700020A0705C
:101BB0002070E2E710B586B014216846FEF73FFBBF
:101BC0001548C16C41F00401C164C16C01F004010D
:101BD0000591C16C41F00101C164C16C01F00101CA
:101BE0000591C16C41F00201C164C06C0B4C00F066
:101BF00002000590002208212046FEF772FC082012
:101C0000009001200021CDE90101039169462046A1
:101C1000FEF78EFB06B010BD001002400004004825
:101C2000134810B51149016040F61461416000216C
:101C30000122C0E90212016141618161C161016259
:101C4000FEF7AEFC08B172B6FEE700210848FEF7C9
:101C500053FC08B172B6FEE700210548FEF777FC99
:101C6000002801D072B6FEE710BD0000005400400D
:101C7000100000200C4810B50A4901604FF41651BD
:101C80004160002181600C22C160C0E904128161C1
:101C9000C16101624162FFF779FD002801D072B68F
:101CA000FEE710BD003801405C0000200C4810B574
:101CB0000A4901604FF416514160002181600C22F5
:101CC000C160C0E904128161C16101624162FFF734
:101CD0005DFD002801D072B6FEE710BD0044004053
:101CE000DC000020FEE7FEE7704700002DE9F04130
:101CF000444C05468846E0680026810728680DD0D8
:101D0000E16801F00301814216D1A8B1E068696879
:101D1000C0F30210401C88420ED120E0012804D0FC
:101D2000022805D0032807D108E02168890701E0CF
:101D300021684905002907DB01265FE02168890346
:101D400002D421684903F5E7E1686A686FF00F0380
:101D500021F0730103EB021211430143E16020689B
:101D600020F080602060FEF7C1FB074605E000BF61
:101D7000FEF7BCFBC01B022837D820680001F7D44F
:101D8000B8F1000F18D0B8F1010F1DD0287D4FF029
:101D90007E41400801EB4060A96840EA01202169CA
:101DA000194A114008432061206840F0806020609B
:101DB000FEF79CFB07461AE0A868297B000240EA70
:101DC000C1602169114AECE7288A1149400801EBFA
:101DD0004050A96840EA012021690E4AE1E700BFAE
:101DE000FEF784FBC01B022801D9032606E0206809
:101DF0000001F5D52069A969084320613046BDE896
:101E0000F081000000100240FF80FFF9FF80FF0713
:101E10000000E0FFFF809FFFF8B51C4D0646002440
:101E2000A86DC00002D5FEF7CFFE0DE0A86D40F012
:101E30008050A865A86D00F080500090FEF7C4FEA9
:101E4000A96D21F08051A965B0F5007F04D0802EE6
:101E500007D94FF003040AE0802E08D9A02E01D83C
:101E600004E001D1022402E0702E00D101240848D0
:101E7000016821F0070121430160006800F00700BC
:101E8000A04201D00120F8BD0020F8BD00100240A2
:101E9000002002407047FEF7D3BD000010B5ACB083
:101EA000442115A8FEF7CBF9142126A8FEF7C7F99F
:101EB00054216846FEF7C3F9FEF78EFE1C4850F821
:101EC000901F21F0180101601420159001200024BA
:101ED0001790CDE91B0460201D901F9415A8FFF7F3
:101EE000D7F808B172B6FEE70F20CDE92604289492
:101EF0002994002126A82A94FEF7C4FF08B172B6DF
:101F0000FEE743200090089409940B946846FEF77E
:101F100073FE08B172B6FEE74FF40070FEF720FEC4
:101F200008B172B6FEE7FEF75FFE2CB010BD0000F0
:101F3000001002400D48016841F4700101600C4836
:101F4000016841F001010160002181600268094BD4
:101F50001A4002608214C260026822F48022026089
:101F600081610249C00380390860704788ED00E054
:101F700000100240FFFFF6EA90F82410C90706D0CF
:101F800001684A68836A22F400321A434A6090F872
:101F90002410890706D501684A68C36A22F4803292
:101FA0001A434A6090F82410490706D501684A6828
:101FB000036B22F480221A434A6090F82410090728
:101FC00006D501684A68436B22F400421A434A600E
:101FD00090F82410C90606D501688A68836B22F43C
:101FE00080521A438A6090F82410890606D5016849
:101FF0008A68C36B22F400521A438A6090F8241056
:10200000490611D501684A68036C22F480121A430C
:102010004A60016CB1F5801F06D101684A68436CC3
:1020200022F4C0021A434A6090F82410090606D52B
:1020300001684A68806C22F4002202434A607047BB
:10204000F8B500260446C667FEF750FA0546206834
:1020500000686FF07E47000708D52B4600224FF43A
:1020600000112046009700F023F960B9206800684D
:1020700040070AD52B4600224FF4800120460097E6
:1020800000F016F908B10320F8BD20206067A067B2
:1020900084F870600020F8BD10B5806A0021A0F8B7
:1020A0005A10A0F85210FFF7BEFA10BD01680A6876
:1020B00022F490720A6001688A6822F001028A6044
:1020C0002021816700210166704700002DE9F04161
:1020D0000446016880682269E3691043626900254B
:1020E0001A4310436B4F0A686B4B1A4002430A6055
:1020F00020684168E26821F4405111434160216841
:10210000A069B94201D0226A10438A6822F4306281
:1021100002438A606149236861488B420DD1D0F83F
:10212000880010F0030006D0012838D0022834D0EF
:10213000032821D135E001211FE05A498B420BD100
:10214000D0F8880010F00C0025D0042827D00828EB
:1021500023D00C2810D124E0BB420DD1D0F8880048
:1021600010F4406017D0B0F5806F18D0B0F5006F54
:1021700013D0B0F5406F14D010214B4800264FF417
:102180000042BB422FD171B1022912D004290DD0D7
:10219000082973D125E00021EFE70221EDE70421B2
:1021A000EBE70821E9E7FEF7FDFE01E0FEF71EFF81
:1021B000F0B3626802EB420181425FD8B0EB023FAC
:1021C0005CD8010E000273084FEA3207C01959416A
:1021D0000023FDF7F9FF354AA0F54071914251D92E
:1021E0004CE01046E5E7E3694FF6EF77934229D1DB
:1021F000092943D2DFE801F005080E420B424242B2
:102200002400FEF7CFFE04E0FEF7DEFE01E0FEF75D
:10221000EDFE68B14100606801EB5001B1FBF0F0E8
:1022200080B2A0F11001B94228D84FF6F07100E059
:102230002AE00140C0F3420001432068C16023E06E
:102240001046E7E7092919D2DFE801F005080E1862
:102250000B1818181A00FEF7A5FE04E0FEF7B4FEEE
:1022600001E0FEF7C3FE78B1616800EB5100B0FBFE
:10227000F1F080B2A0F11001B94203D9012503E0C9
:102280001046F1E72168C860266628466666BDE804
:10229000F081000000800040F369FFEF003801404A
:1022A00000100240004400400024F400FFFC0F0036
:1022B0002DE9F0479A4617460E4604464FF00009AE
:1022C0004FF02008089D39E0681C37D0FEF70EF962
:1022D000A0EB0A00A84222D80DB320680168490784
:1022E0002CD5C069C043000528D421684FF4006094
:1022F00008622068016821F4D0710160206881685B
:1023000021F001018160C4F87480C4F87880C4F8B9
:102310007C8000BF84F870900320BDE8F0872068BF
:10232000016821F4D07101602068816821F0010109
:102330008160C4F87480C4F87880EBE72068C069D5
:1023400036EA000004D00020B842BDD00020E4E707
:102350000120F9E70148FFF767B900005C000020A1
:102360000148FFF761B90000DC000020FEE7090723
:10237000090E002804DB00F1E02080F8001470470B
:1023800000F00F0000F1E02080F8141D704702E01B
:1023900008C8121F08C1002AFAD1704770470020F0
:1023A00001E001C1121F002AFBD1704786B0FEF781
:1023B0004FFBFFF773FDFFF7FDFBFFF731FCFFF766
:1023C00059FCFFF773FC4FF0FF330A22D021594824
:1023D000FEF742F9584D50B9012408212846FEF76E
:1023E00078F8FA20FDF792FF641C0A2CF5DD53A162
:1023F000D1E90001CDE9010111208DF80C00122076
:102400008DF810004B484C300068016841F0200105
:10241000016004AE03AF0A244FF47A79012303AAC2
:10242000D02144480094FEF743FA01237A1CD121BD
:1024300040480094FEF7A6F9012304AAD0213D48A4
:102440000094FEF735FA0123721CD121394800941B
:10245000FEF798F99DF80D001A2831D301220821C2
:102460002846FEF73EF84FF496784046FDF74EFFBB
:10247000002208212846FEF734F84046FDF746FFC3
:10248000012208212846FEF72CF84046FDF73EFFC2
:10249000002208212846FEF724F84046FDF736FFC3
:1024A000012208212846FEF71CF84046FDF72EFFC2
:1024B000002208212846FEF714F84046FDF726FFC3
:1024C0009DF80D000A23B0FBF4F104FB1101B0FBF1
:1024D000F4F030318DF80510C1B2B1FBF4F2B0FB6D
:1024E000F4F004FB12118DF80D0030319DF811004D
:1024F0008DF80410B0FBF4F104FB1101B0FBF4F013
:1025000030318DF80810C1B2B1FBF4F2B0FBF4F039
:1025100004FB12118DF81100303106488DF80710B8
:10252000072201A9CC30FFF7C3F94846FDF7EEFEBC
:1025300074E70000100000200004004800002E0096
:10254000000D0A000000000000000000010203046A
:1025500006070809A0860100400D0300801A060046
:1025600000350C0040420F0080841E0000093D0031
:1025700000127A000024F40000366E010048E801E1
:10258000006CDC020000000001020304AC2500081E
:1025900000000020100000008E230008BC25000869
:1025A00010000020500500009E23000801000000DC
:0C25B000100000000000000000093D00C9
:040000050800018D61
:00000001FF
